{
  "contractName": "Cartorio",
  "abi": [
    {
      "anonymous": false,
      "inputs": [
        {
          "indexed": false,
          "internalType": "uint256",
          "name": "numeroCertidao",
          "type": "uint256"
        },
        {
          "indexed": false,
          "internalType": "string",
          "name": "nomeCrianca",
          "type": "string"
        },
        {
          "indexed": false,
          "internalType": "string",
          "name": "nomeMae",
          "type": "string"
        },
        {
          "indexed": false,
          "internalType": "string",
          "name": "nomePai",
          "type": "string"
        },
        {
          "indexed": false,
          "internalType": "string",
          "name": "avozinhaMaterna",
          "type": "string"
        },
        {
          "indexed": false,
          "internalType": "string",
          "name": "avozinhoMaterno",
          "type": "string"
        },
        {
          "indexed": false,
          "internalType": "string",
          "name": "avozinhaPaterna",
          "type": "string"
        },
        {
          "indexed": false,
          "internalType": "string",
          "name": "avozinhoPaterno",
          "type": "string"
        },
        {
          "indexed": false,
          "internalType": "string",
          "name": "sexo",
          "type": "string"
        },
        {
          "indexed": false,
          "internalType": "string",
          "name": "cpf",
          "type": "string"
        },
        {
          "components": [
            {
              "internalType": "string",
              "name": "data",
              "type": "string"
            },
            {
              "internalType": "string",
              "name": "hora",
              "type": "string"
            },
            {
              "internalType": "string",
              "name": "cidade",
              "type": "string"
            },
            {
              "internalType": "string",
              "name": "estado",
              "type": "string"
            }
          ],
          "indexed": false,
          "internalType": "struct Cartorio.DadosComplementares",
          "name": "complementar",
          "type": "tuple"
        }
      ],
      "name": "Registro",
      "type": "event"
    },
    {
      "inputs": [],
      "name": "owner",
      "outputs": [
        {
          "internalType": "address",
          "name": "",
          "type": "address"
        }
      ],
      "stateMutability": "view",
      "type": "function",
      "constant": true
    },
    {
      "inputs": [
        {
          "internalType": "uint256",
          "name": "_numero",
          "type": "uint256"
        },
        {
          "internalType": "string",
          "name": "_nome",
          "type": "string"
        },
        {
          "internalType": "string",
          "name": "_nomeMae",
          "type": "string"
        },
        {
          "internalType": "string",
          "name": "_nomePai",
          "type": "string"
        },
        {
          "internalType": "string",
          "name": "_nomeAvozinhaMaterna",
          "type": "string"
        },
        {
          "internalType": "string",
          "name": "_nomeAvozinhoMaterno",
          "type": "string"
        },
        {
          "internalType": "string",
          "name": "_nomeAvozinhaPaterna",
          "type": "string"
        },
        {
          "internalType": "string",
          "name": "_nomeAvozinhoPaterno",
          "type": "string"
        },
        {
          "internalType": "string",
          "name": "_cpf",
          "type": "string"
        },
        {
          "internalType": "string",
          "name": "_sexo",
          "type": "string"
        },
        {
          "components": [
            {
              "internalType": "string",
              "name": "data",
              "type": "string"
            },
            {
              "internalType": "string",
              "name": "hora",
              "type": "string"
            },
            {
              "internalType": "string",
              "name": "cidade",
              "type": "string"
            },
            {
              "internalType": "string",
              "name": "estado",
              "type": "string"
            }
          ],
          "internalType": "struct Cartorio.DadosComplementares",
          "name": "_complementar",
          "type": "tuple"
        }
      ],
      "name": "cadastrar",
      "outputs": [],
      "stateMutability": "nonpayable",
      "type": "function"
    }
  ],
  "bytecode": "0x6080604052336000806101000a81548173ffffffffffffffffffffffffffffffffffffffff021916908373ffffffffffffffffffffffffffffffffffffffff16021790555034801561005057600080fd5b5061085b806100606000396000f3fe608060405234801561001057600080fd5b50600436106100365760003560e01c80638da5cb5b1461003b578063b0fc9b5114610059575b600080fd5b610043610075565b6040516100509190610132565b60405180910390f35b610073600480360381019061006e91906103cf565b610099565b005b60008054906101000a900473ffffffffffffffffffffffffffffffffffffffff1681565b7f4996a4bc3697c37ec7e9447703fd4ca27f4b17762a79e193037a21e6acf43cfd8b8b8b8b8b8b8b8b8a8c8b6040516100dc9b9a99989796959493929190610734565b60405180910390a15050505050505050505050565b600073ffffffffffffffffffffffffffffffffffffffff82169050919050565b600061011c826100f1565b9050919050565b61012c81610111565b82525050565b60006020820190506101476000830184610123565b92915050565b6000604051905090565b600080fd5b600080fd5b6000819050919050565b61017481610161565b811461017f57600080fd5b50565b6000813590506101918161016b565b92915050565b600080fd5b600080fd5b6000601f19601f8301169050919050565b7f4e487b7100000000000000000000000000000000000000000000000000000000600052604160045260246000fd5b6101ea826101a1565b810181811067ffffffffffffffff82111715610209576102086101b2565b5b80604052505050565b600061021c61014d565b905061022882826101e1565b919050565b600067ffffffffffffffff821115610248576102476101b2565b5b610251826101a1565b9050602081019050919050565b82818337600083830152505050565b600061028061027b8461022d565b610212565b90508281526020810184848401111561029c5761029b61019c565b5b6102a784828561025e565b509392505050565b600082601f8301126102c4576102c3610197565b5b81356102d484826020860161026d565b91505092915050565b600080fd5b600080fd5b6000608082840312156102fd576102fc6102dd565b5b6103076080610212565b9050600082013567ffffffffffffffff811115610327576103266102e2565b5b610333848285016102af565b600083015250602082013567ffffffffffffffff811115610357576103566102e2565b5b610363848285016102af565b602083015250604082013567ffffffffffffffff811115610387576103866102e2565b5b610393848285016102af565b604083015250606082013567ffffffffffffffff8111156103b7576103b66102e2565b5b6103c3848285016102af565b60608301525092915050565b60008060008060008060008060008060006101608c8e0312156103f5576103f4610157565b5b60006104038e828f01610182565b9b505060208c013567ffffffffffffffff8111156104245761042361015c565b5b6104308e828f016102af565b9a505060408c013567ffffffffffffffff8111156104515761045061015c565b5b61045d8e828f016102af565b99505060608c013567ffffffffffffffff81111561047e5761047d61015c565b5b61048a8e828f016102af565b98505060808c013567ffffffffffffffff8111156104ab576104aa61015c565b5b6104b78e828f016102af565b97505060a08c013567ffffffffffffffff8111156104d8576104d761015c565b5b6104e48e828f016102af565b96505060c08c013567ffffffffffffffff8111156105055761050461015c565b5b6105118e828f016102af565b95505060e08c013567ffffffffffffffff8111156105325761053161015c565b5b61053e8e828f016102af565b9450506101008c013567ffffffffffffffff8111156105605761055f61015c565b5b61056c8e828f016102af565b9350506101208c013567ffffffffffffffff81111561058e5761058d61015c565b5b61059a8e828f016102af565b9250506101408c013567ffffffffffffffff8111156105bc576105bb61015c565b5b6105c88e828f016102e7565b9150509295989b509295989b9093969950565b6105e481610161565b82525050565b600081519050919050565b600082825260208201905092915050565b60005b83811015610624578082015181840152602081019050610609565b83811115610633576000848401525b50505050565b6000610644826105ea565b61064e81856105f5565b935061065e818560208601610606565b610667816101a1565b840191505092915050565b600082825260208201905092915050565b600061068e826105ea565b6106988185610672565b93506106a8818560208601610606565b6106b1816101a1565b840191505092915050565b600060808301600083015184820360008601526106d98282610683565b915050602083015184820360208601526106f38282610683565b9150506040830151848203604086015261070d8282610683565b915050606083015184820360608601526107278282610683565b9150508091505092915050565b60006101608201905061074a600083018e6105db565b818103602083015261075c818d610639565b90508181036040830152610770818c610639565b90508181036060830152610784818b610639565b90508181036080830152610798818a610639565b905081810360a08301526107ac8189610639565b905081810360c08301526107c08188610639565b905081810360e08301526107d48187610639565b90508181036101008301526107e98186610639565b90508181036101208301526107fe8185610639565b905081810361014083015261081381846106bc565b90509c9b50505050505050505050505056fea2646970667358221220dd74708c8c22d32c934214eca48a0b2aa15b51d1d1071eadb5e827e992e3835464736f6c634300080b0033",
  "immutableReferences": {},
  "source": "// SPDX-License-Identifier: MIT\npragma solidity >=0.4.22 <0.9.0;\n\ncontract Cartorio {\n  //variaveis\n  address public owner = msg.sender;\n  struct DadosComplementares {\n    string data;\n    string hora;\n    string cidade;\n    string estado;\n  }\n\n  event Registro(\n    uint numeroCertidao,\n    string nomeCrianca,\n    string nomeMae,\n    string nomePai,\n    string avozinhaMaterna,\n    string avozinhoMaterno,\n    string avozinhaPaterna,\n    string avozinhoPaterno,\n    string sexo,\n    string cpf,\n    DadosComplementares complementar\n    );\n\n  function cadastrar(uint _numero,\n                    string memory _nome, \n                    string memory _nomeMae, \n                    string memory _nomePai, \n                    string memory _nomeAvozinhaMaterna, \n                    string memory _nomeAvozinhoMaterno, \n                    string memory _nomeAvozinhaPaterna, \n                    string memory _nomeAvozinhoPaterno, \n                    string memory _cpf,\n                    string memory _sexo,\n                    DadosComplementares memory _complementar\n                   ) public {\n\n      \n      emit Registro(\n        _numero,\n        _nome,\n        _nomeMae,\n        _nomePai,\n        _nomeAvozinhaMaterna,\n        _nomeAvozinhoMaterno,\n        _nomeAvozinhaPaterna,\n        _nomeAvozinhoPaterno,\n        _sexo,\n        _cpf,\n        _complementar\n      );\n  }\n}\n",
  "sourcePath": "/home/Isaac/Documentos/estudos/programacao/ultimateProjeto/blockChain/contracts/Cartorio.sol",
  "compiler": {
    "name": "solc",
    "version": "0.8.11+commit.d7f03943.Emscripten.clang"
  },
  "schemaVersion": "3.4.5",
  "updatedAt": "2022-04-23T20:55:56.624Z",
  "networkType": "ethereum",
  "devdoc": {
    "kind": "dev",
    "methods": {},
    "version": 1
  },
  "userdoc": {
    "kind": "user",
    "methods": {},
    "version": 1
  }
}